{
  "contractName": "Donazione",
  "abi": [
    {
      "inputs": [],
      "stateMutability": "nonpayable",
      "type": "constructor"
    },
    {
      "anonymous": false,
      "inputs": [
        {
          "indexed": true,
          "internalType": "address",
          "name": "previousOwner",
          "type": "address"
        },
        {
          "indexed": true,
          "internalType": "address",
          "name": "newOwner",
          "type": "address"
        }
      ],
      "name": "OwnershipTransferred",
      "type": "event"
    },
    {
      "anonymous": false,
      "inputs": [
        {
          "indexed": false,
          "internalType": "uint256",
          "name": "transaction",
          "type": "uint256"
        }
      ],
      "name": "donazione_effettuata",
      "type": "event"
    },
    {
      "inputs": [],
      "name": "owner",
      "outputs": [
        {
          "internalType": "address",
          "name": "",
          "type": "address"
        }
      ],
      "stateMutability": "view",
      "type": "function",
      "constant": true
    },
    {
      "inputs": [
        {
          "internalType": "address",
          "name": "dest",
          "type": "address"
        }
      ],
      "name": "payments",
      "outputs": [
        {
          "internalType": "uint256",
          "name": "",
          "type": "uint256"
        }
      ],
      "stateMutability": "view",
      "type": "function",
      "constant": true
    },
    {
      "inputs": [],
      "name": "renounceOwnership",
      "outputs": [],
      "stateMutability": "nonpayable",
      "type": "function"
    },
    {
      "inputs": [
        {
          "internalType": "address",
          "name": "newOwner",
          "type": "address"
        }
      ],
      "name": "transferOwnership",
      "outputs": [],
      "stateMutability": "nonpayable",
      "type": "function"
    },
    {
      "inputs": [
        {
          "internalType": "address payable",
          "name": "payee",
          "type": "address"
        }
      ],
      "name": "withdrawPayments",
      "outputs": [],
      "stateMutability": "nonpayable",
      "type": "function"
    },
    {
      "stateMutability": "payable",
      "type": "receive",
      "payable": true
    },
    {
      "inputs": [
        {
          "internalType": "address",
          "name": "newOwner",
          "type": "address"
        }
      ],
      "name": "change_owner",
      "outputs": [
        {
          "internalType": "address",
          "name": "",
          "type": "address"
        }
      ],
      "stateMutability": "nonpayable",
      "type": "function"
    },
    {
      "inputs": [
        {
          "internalType": "address",
          "name": "utente",
          "type": "address"
        },
        {
          "internalType": "address payable",
          "name": "ente",
          "type": "address"
        }
      ],
      "name": "nuovaDonazione",
      "outputs": [
        {
          "internalType": "address",
          "name": "",
          "type": "address"
        }
      ],
      "stateMutability": "payable",
      "type": "function",
      "payable": true
    },
    {
      "inputs": [],
      "name": "getAmount",
      "outputs": [
        {
          "internalType": "uint256",
          "name": "",
          "type": "uint256"
        }
      ],
      "stateMutability": "view",
      "type": "function",
      "constant": true
    }
  ],
  "bytecode": "0x60a06040526005805460ff1916905534801561001a57600080fd5b5061002433610070565b604051610030906100c0565b604051809103906000f08015801561004c573d6000803e3d6000fd5b506001600160a01b0316608052600280546001600160a01b031916331790556100cd565b600080546001600160a01b038381166001600160a01b0319831681178455604051919092169283917f8be0079c531659141344cd1fd0a4f28419497f9722a3daafe3b4186f6b6457e09190a35050565b61058c8061084583390190565b6080516107566100ef600039600081816101c501526104cd01526107566000f3fe60806040526004361061007f5760003560e01c8063cd51ecbd1161004e578063cd51ecbd1461011d578063d321fe2914610130578063e2982c211461014f578063f2fde38b1461016f57600080fd5b8063253c8bd41461008b57806331b3eb94146100c8578063715018a6146100ea5780638da5cb5b146100ff57600080fd5b3661008657005b600080fd5b34801561009757600080fd5b506100ab6100a6366004610689565b61018f565b6040516001600160a01b0390911681526020015b60405180910390f35b3480156100d457600080fd5b506100e86100e3366004610689565b6101a6565b005b3480156100f657600080fd5b506100e8610224565b34801561010b57600080fd5b506000546001600160a01b03166100ab565b6100ab61012b3660046106ad565b610238565b34801561013c57600080fd5b506001545b6040519081526020016100bf565b34801561015b57600080fd5b5061014161016a366004610689565b6104ab565b34801561017b57600080fd5b506100e861018a366004610689565b61053a565b60006101996105b3565b6101a28261060d565b5090565b6040516351cff8d960e01b81526001600160a01b0382811660048301527f000000000000000000000000000000000000000000000000000000000000000016906351cff8d990602401600060405180830381600087803b15801561020957600080fd5b505af115801561021d573d6000803e3d6000fd5b5050505050565b61022c6105b3565b610236600061060d565b565b60006102426105b3565b6001600160a01b0383166000908152600460205260408120805434929061026a9084906106e6565b9091555050600380546001810182556000919091527fc2575a0e9e593c00f959f8c92f12db2869c3395a3b0502d05e2516446f71f85b0180546001600160a01b0319166001600160a01b038481169190911790915560025416331461032e5760405162461bcd60e51b815260206004820152602f60248201527f536f6c6f20696c2070726f70726965746172696f2070756f27206c616e63696160448201526e726520696c20636f6e74726174746f60881b60648201526084015b60405180910390fd5b600034116103745760405162461bcd60e51b8152602060048201526013602482015272466f6e646920696e73756666696369656e746960681b6044820152606401610325565b60055460ff16156103d55760405162461bcd60e51b815260206004820152602560248201527f496c20636f6e74726174746f206527206769612720737461746f20636f6d706c604482015264657461746f60d81b6064820152608401610325565b6001600160a01b038381166000908152600460205260408082205490519285169281156108fc0292818181858888f1935050505015801561041a573d6000803e3d6000fd5b506001600160a01b03831660009081526004602052604081205460018054919290916104479084906106e6565b90915550610455905061065d565b6001600160a01b0383166000908152600460209081526040918290205491519182527ff2cd2695545358d56444a33c0863583c9cbf6abaffaecc3e157e497280b14be0910160405180910390a150335b92915050565b6040516371d4ed8d60e11b81526001600160a01b0382811660048301526000917f00000000000000000000000000000000000000000000000000000000000000009091169063e3a9db1a90602401602060405180830381865afa158015610516573d6000803e3d6000fd5b505050506040513d601f19601f820116820180604052508101906104a59190610707565b6105426105b3565b6001600160a01b0381166105a75760405162461bcd60e51b815260206004820152602660248201527f4f776e61626c653a206e6577206f776e657220697320746865207a65726f206160448201526564647265737360d01b6064820152608401610325565b6105b08161060d565b50565b6000546001600160a01b031633146102365760405162461bcd60e51b815260206004820181905260248201527f4f776e61626c653a2063616c6c6572206973206e6f7420746865206f776e65726044820152606401610325565b600080546001600160a01b038381166001600160a01b0319831681178455604051919092169283917f8be0079c531659141344cd1fd0a4f28419497f9722a3daafe3b4186f6b6457e09190a35050565b6106656105b3565b6005805460ff19166001179055565b6001600160a01b03811681146105b057600080fd5b60006020828403121561069b57600080fd5b81356106a681610674565b9392505050565b600080604083850312156106c057600080fd5b82356106cb81610674565b915060208301356106db81610674565b809150509250929050565b808201808211156104a557634e487b7160e01b600052601160045260246000fd5b60006020828403121561071957600080fd5b505191905056fea2646970667358221220e5dd395ff24e355215f779c90e1f1d0f94c415ee1150212347f1a6b35ff5153f64736f6c63430008120033608060405234801561001057600080fd5b5061001a3361001f565b61006f565b600080546001600160a01b038381166001600160a01b0319831681178455604051919092169283917f8be0079c531659141344cd1fd0a4f28419497f9722a3daafe3b4186f6b6457e09190a35050565b61050e8061007e6000396000f3fe6080604052600436106100555760003560e01c806351cff8d91461005a578063715018a61461007c5780638da5cb5b14610091578063e3a9db1a146100be578063f2fde38b14610102578063f340fa0114610122575b600080fd5b34801561006657600080fd5b5061007a61007536600461048d565b610135565b005b34801561008857600080fd5b5061007a6101ac565b34801561009d57600080fd5b506000546040516001600160a01b0390911681526020015b60405180910390f35b3480156100ca57600080fd5b506100f46100d936600461048d565b6001600160a01b031660009081526001602052604090205490565b6040519081526020016100b5565b34801561010e57600080fd5b5061007a61011d36600461048d565b6101c0565b61007a61013036600461048d565b61023e565b61013d6102b0565b6001600160a01b0381166000818152600160205260408120805491905590610165908261030a565b816001600160a01b03167f7084f5476618d8e60b11ef0d7d3f06914655adb8793e28ff7f018d4c76d505d5826040516101a091815260200190565b60405180910390a25050565b6101b46102b0565b6101be6000610428565b565b6101c86102b0565b6001600160a01b0381166102325760405162461bcd60e51b815260206004820152602660248201527f4f776e61626c653a206e6577206f776e657220697320746865207a65726f206160448201526564647265737360d01b60648201526084015b60405180910390fd5b61023b81610428565b50565b6102466102b0565b6001600160a01b0381166000908152600160205260408120805434928392916102709084906104b1565b90915550506040518181526001600160a01b038316907f2da466a7b24304f47e87fa2e1e5a81b9831ce54fec19055ce277ca2f39ba42c4906020016101a0565b6000546001600160a01b031633146101be5760405162461bcd60e51b815260206004820181905260248201527f4f776e61626c653a2063616c6c6572206973206e6f7420746865206f776e65726044820152606401610229565b8047101561035a5760405162461bcd60e51b815260206004820152601d60248201527f416464726573733a20696e73756666696369656e742062616c616e63650000006044820152606401610229565b6000826001600160a01b03168260405160006040518083038185875af1925050503d80600081146103a7576040519150601f19603f3d011682016040523d82523d6000602084013e6103ac565b606091505b50509050806104235760405162461bcd60e51b815260206004820152603a60248201527f416464726573733a20756e61626c6520746f2073656e642076616c75652c207260448201527f6563697069656e74206d617920686176652072657665727465640000000000006064820152608401610229565b505050565b600080546001600160a01b038381166001600160a01b0319831681178455604051919092169283917f8be0079c531659141344cd1fd0a4f28419497f9722a3daafe3b4186f6b6457e09190a35050565b6001600160a01b038116811461023b57600080fd5b60006020828403121561049f57600080fd5b81356104aa81610478565b9392505050565b808201808211156104d257634e487b7160e01b600052601160045260246000fd5b9291505056fea2646970667358221220a2a588e45474e2a3c9c45042806058440fb7221226418ca1a0c19ed0caf11d3664736f6c63430008120033",
  "immutableReferences": {
    "119": [
      {
        "length": 32,
        "start": 453
      },
      {
        "length": 32,
        "start": 1229
      }
    ]
  },
  "source": "// SPDX-License-Identifier: UNLICENSED\n\npragma solidity ^0.8.0;\n\n\nimport \"@openzeppelin/contracts/access/Ownable.sol\";\nimport \"@openzeppelin/contracts/security/PullPayment.sol\";\n\n\n\ncontract Donazione is Ownable, PullPayment{\n     \n   uint256 private amount;\n   address private Owner;\n   \n   address payable [] enti;\n   \n   mapping(address => uint256) donations;\n   \n   \n   // Mutex settato inizialmente a false per permettere l'utilizzo del contratto  \n   bool mutexCompleted = false;\n   \n   // Setto l'Owner del contratto\n   constructor() {\n        Owner = msg.sender;\n   }\n   \n   \n   function isOwner() internal view returns(bool) {\n      return owner() == msg.sender; \n   }\n  \n   // Funzione per il trasferimento dei permessi di Owner\n   function change_owner(address newOwner) public onlyOwner returns (address){\n      _transferOwnership(newOwner);\n      return newOwner;\n   }\n   \n   // Evento per la donazione effettuata\n   event donazione_effettuata(uint256 transaction);\n   \n   \n   // Funzione donazione disponibile solo al creatore (donatore) del contratto con la funzione di sicurezza onlyOwner\n   function nuovaDonazione(address utente, address payable ente) public payable onlyOwner returns (address) {\n      \n      donations[utente] += msg.value;\n      enti.push(ente);\n         \n      require(msg.sender == Owner, \"Solo il proprietario puo' lanciare il contratto\"); \n      require(msg.value > 0, \"Fondi insufficienti\");\n      require(!mutexCompleted, \"Il contratto e' gia' stato completato\");\n      \n      /* \n         Utilizzo di _asyncTransfer cos che i fondi inviati in questo modo vengono immagazzinati in un \n         contratto Escrow intermedio, quindi non c' pericolo che vengano spesi prima del prelievo. \n      */\n      //_asyncTransfer(ente, donations[utente]);      \n      \n      ente.transfer(donations[utente]);\n      \n      amount += donations[utente];\n       \n      completa_contratto();\n      \n      emit donazione_effettuata(donations[utente]);\n      \n      return msg.sender;             \n   }\n  \n   // Funzione per completamento del contratto (effettuabile solo dal suo possessore(donatore))\n   function completa_contratto() internal onlyOwner{   \n      // Flag mutex per concludere definitivamente il contratto\n      mutexCompleted = true;\n   }\n   \n   // Funzione necessaria per far ricevere al contratto pagamenti in ETH (payable) da un utente esterno (external)\n   receive() external payable{}\n       \n   // Ritorna ammontare di donazioni del contratto\n   function getAmount() public view returns (uint256) {\n        return amount;\n   }\n  \n}\n",
  "sourcePath": "/home/eduardo/Scrivania/Progetto_donazioni/contracts/Donazione.sol",
  "compiler": {
    "name": "solc",
    "version": "0.8.18+commit.87f61d96.Emscripten.clang"
  },
  "schemaVersion": "3.4.11",
  "updatedAt": "2023-02-16T18:47:54.538Z",
  "networkType": "ethereum",
  "devdoc": {
    "kind": "dev",
    "methods": {
      "owner()": {
        "details": "Returns the address of the current owner."
      },
      "payments(address)": {
        "details": "Returns the payments owed to an address.",
        "params": {
          "dest": "The creditor's address."
        }
      },
      "renounceOwnership()": {
        "details": "Leaves the contract without owner. It will not be possible to call `onlyOwner` functions anymore. Can only be called by the current owner. NOTE: Renouncing ownership will leave the contract without an owner, thereby removing any functionality that is only available to the owner."
      },
      "transferOwnership(address)": {
        "details": "Transfers ownership of the contract to a new account (`newOwner`). Can only be called by the current owner."
      },
      "withdrawPayments(address)": {
        "details": "Withdraw accumulated payments, forwarding all gas to the recipient. Note that _any_ account can call this function, not just the `payee`. This means that contracts unaware of the `PullPayment` protocol can still receive funds this way, by having a separate account call {withdrawPayments}. WARNING: Forwarding all gas opens the door to reentrancy vulnerabilities. Make sure you trust the recipient, or are either following the checks-effects-interactions pattern or using {ReentrancyGuard}.",
        "params": {
          "payee": "Whose payments will be withdrawn. Causes the `escrow` to emit a {Withdrawn} event."
        }
      }
    },
    "version": 1
  },
  "userdoc": {
    "kind": "user",
    "methods": {},
    "version": 1
  }
}